:020000040800F2
:1000000068080020010100085F1A00087518000840
:100010005D1A000871020008E920000800000000D5
:10002000000000000000000000000000231C000889
:100030007302000800000000811A0008251C000857
:100040001B0100081B0100081B0100081B01000820
:100050001B0100081B0100081B01000875020008B5
:100060001B0100081B0100081B0100081B01000800
:100070001B0100081B0100081B0100081B010008F0
:100080001B0100081B0100081B0100081B010008E0
:100090001B0100081B0100081B0100081B010008D0
:1000A0001B0100081B0100081B0100081B010008C0
:1000B0001B010008011D00081B0100081B010008AE
:1000C0001B0100081B0100081B0100081B010008A0
:1000D0001B010008DD2000081B0100081B010008AF
:1000E0001B0100081B0100081B010008DFF80CD0F1
:1000F00000F018F800480047752100086808002043
:100100000648804706480047FEE7FEE7FEE7FEE7B1
:10011000FEE7FEE7FEE7FEE7FEE7FEE7B91C0008A4
:10012000ED000008064C074D06E0E06840F00103D2
:1001300094E8070098471034AC42F6D3FFF7DAFF93
:10014000A4230008C423000810B50C214FF48170CB
:1001500001F0BAFCFF21002001F094FC4FF4807103
:100160004FF4407001F0D6FC5521042001F08AFCC8
:1001700047F2305140F2011001F0A6FCBDE81040FA
:1001800002494FF44B7001F0C5BC00003800140068
:1001900000221021014800F013BA000000080140BD
:1001A00010B5094C00220121204600F009FA0A206E
:1001B00000F0B0F801221146204600F001FABDE837
:1001C00010400A2000F0A6B8000C01401CB5012028
:1001D0008DF8000002208DF8010000208DF802004B
:1001E00004200A4C8DF8030000221021204600F064
:1001F000E7F94FF47A7305226946054800F04AFE94
:1002000001221021204600F0DBF91CBD000801404E
:100210008C030020F8B50546080A8DF800008DF81B
:1002200001108020104F14468DF80200002210218A
:10023000384600F0C5F94FF47A7633460322694612
:100240000A4800F027FEA2B233462946074800F0CC
:1002500079FD08B10120F8BD01221021384600F0D7
:10026000AFF90020F8BD0000000801408C03002019
:10027000FEE77047022000F0B9B8000010B590F812
:1002800021100024022903D00421816301243DE0D0
:1002900001680A6822F00E020A6001680A6822F00A
:1002A00001020A601A4A0168914201D1012121E04C
:1002B000174A1432914201D110211BE0144A28320E
:1002C000914201D1891515E0114A3C32914201D188
:1002D00089140FE00E4A5032914202D14FF480311E
:1002E00008E00B4A6432914202D14FF4801101E0E0
:1002F0004FF08071064A083A5160012180F82110C0
:10030000002180F82010416B01B18847204610BDC4
:100310000800024070B5044600F058F90546601C1C
:1003200002D004480078044400F050F9401BA04279
:10033000FAD370BD3000002010B5022828D1042265
:1003400040F22E311F48FFF765FF20B14FF4947142
:100350001DA001F0CBFE1B498878C20604D5BDE87C
:1003600010401DA001F0D2BE82071DD5154C0C3CDB
:100370006089B0F58C7F0CD21A4900EB400008442C
:10038000032240F21621FFF745FF6089401C60817F
:1003900010BD15494FF44B7001F0BCFB002060818B
:1003A000BDE8104001F0C8BF400706D40878010737
:1003B00003D4C10601D48006EAD5BDE8104001F09F
:1003C0007BBF00000C0000202E2E2F5372632F6D78
:1003D00061696E2E63000000414445373935332092
:1003E0004F4B0A004400002038001400044910B5A7
:1003F0000A68024202D00860FFF79EFF10BD0000AD
:10040000140401402DE9F84FDFF890A100220AF111
:10041000040B144601274FF00F090BF1040E00BF27
:100420000B6807FA04F52B40AB4274D1DFF870C1BA
:100430004E68A6EB0C0866452BD00DDC032E34D09D
:1004400005DC36B3012E19D0022E2FD11BE0112E60
:1004500016D0122E2AD119E0B8F5881F19D006DC63
:10046000B8F5803F15D0B8F5801F1FD111E0B8F561
:10047000001F0ED0B8F5041F18D10AE0CA6815E0B5
:10048000CA68121D12E0CA6808320FE0CA680C324E
:100490000CE08A682AB1012A4FF0080203D04561B6
:1004A00004E0042202E0056100E00022FF2B01D8F5
:1004B000064601E000F104064FEA840501D9A5F1E2
:1004C0002005D6F800C009FA05F82CEA080C02FA53
:1004D00005F54CEA050CC6F800C04D68ED0057D58F
:1004E000304DAE6946F00106AE61AD6924F00306F9
:1004F00005F0010500952C4D06EB050CDCF80850C5
:10050000A6074FEA167809FA08F6B543274EB04217
:1005100002D1002610E03BE0254EB04201D1012679
:100520000AE0244EB04201D1022605E0224EB0423C
:1005300001D1032600E0042606FA08F62E43CCF883
:1005400008604D68DAF80060ED03554601D51E439A
:1005500000E09E432E604D68DBF80060AD035D4611
:1005600001D51E4300E09E432E604D68DEF800601A
:10057000ED02754601D51E4300E09E432E604D6896
:10058000AD020E4D2E6801D51E4300E09E432E6045
:10059000641C102CFFF444AFBDE8F88F0004014048
:1005A000000011100010024000000140000801404E
:1005B000000C014000100140001401400C040140F7
:1005C0000AB1016170470904FBE700000148806837
:1005D0007047000030000020024881680278114412
:1005E0008160704730000020074810B5016841F075
:1005F00010010160032000F09DF8002000F006F8D3
:1006000000F024F8002010BD0020024070B50D4D10
:1006100004464FF47A712878B1FBF0F00A49096872
:10062000B1FBF0F000F0E3FD48B9102C07D2002236
:100630002146501E00F05EF800206C6070BD012065
:1006400070BD0000300000203C000020214808B5AB
:10065000816941F001018161816901F0010100912D
:10066000C16941F08051C161C06900F080500090C3
:10067000032000F05FF8002211466FF00B0000F03D
:1006800039F8002211466FF00A0000F033F800221A
:1006900011466FF0090000F02DF800221146501F9E
:1006A00000F028F800221146101F00F023F8002265
:1006B0001146901E00F01EF800221146501E00F058
:1006C00019F80548416821F0E06141F0007141608E
:1006D00008BD0000001002400000014000F01F02B1
:1006E000012191404009800000F1E020C0F8001194
:1006F00070470000F0B40E4B1B680C46C3F3022396
:10070000C3F10705042D00D90425191D072901D2BD
:10071000002300E0DB1E012606FA05F1491E2140F8
:1007200099409E40761E16403143F0BC01F098B9C6
:100730000CED00E0064900F0070208684FF6FF03E1
:10074000184040EA0220034A104308607047000046
:100750000CED00E00000FA052DE9F047DFF83C81E0
:1007600005460E46D8F8000000F00700B0420CD253
:10077000D8F8001021F007013143C8F80010D8F86C
:10078000000000F00700B04263D12878444C800795
:1007900005D56068A96820F0F000084360602878FB
:1007A000C00745D06868012816D02168022816D0F5
:1007B000890700294DDA616821F003010143616076
:1007C000FFF704FF6968074641F2883001290FD01E
:1007D0000229814619D027E021688903E9E78901C8
:1007E000E7E700BFFFF7F2FEC11B494501D918E05A
:1007F00081466068C0F381000128F3D118E000BF92
:10080000FFF7E4FEC11B49450BD86068C0F38100C7
:100810000228F5D10CE000BFFFF7D8FEC11B494507
:1008200002D90320BDE8F087606810F00C0FF3D107
:10083000D8F80010404601F00701B1420BD9016819
:1008400021F0070131430160006800F00700B04269
:1008500001D00120E6E72878400705D56068E968FF
:1008600020F4E060084360602878000706D56068DF
:10087000296920F4605040EAC100606000F03CF853
:100880006168084AC1F30311515CC8400649086019
:100890000020FFF7BBFE0020C4E70000002002405C
:1008A000001002408C2300083C0000200148006832
:1008B000704700003C000020044805490068496872
:1008C000044AC1F30221515CC84070473C0000203B
:1008D000001002409C23000804480549006849684C
:1008E000044AC1F3C221515CC84070473C0000205B
:1008F000001002409C23000812A185B00FC98DE8AA
:100900000F0014A0144A006804905168134801F0C5
:100910000C03042B10D0082B0ED1C1F38343C90361
:100920001DF803000AD5516804AAC1F34041515C87
:100930000A4A5043B0FBF1F005B0704708494843FC
:10094000FAE7000002030405060708090A0B0C0D6C
:100950000E0F1010010200000010024000127A0079
:1009600000093D002DE9F84F04460078B94DC00755
:1009700048D06868C0F38100012807D06868C0F3D8
:100980008100022809D16868C00306D52868800361
:1009900038D5606800286FD034E06068B0F5803FDB
:1009A0000BD010B1B0F5A02F11D0286820F4803002
:1009B0002860286820F4802002E0286840F4803015
:1009C0002860606888B1FFF701FE064609E02868E4
:1009D00040F480202860F0E7FFF7F8FD801B6428D2
:1009E00075D828688003F7D50CE0FFF7EFFD0646C1
:1009F00005E000BFFFF7EAFD801B6428F0D82868F7
:100A00008003F7D42078944E80074FF001094FF00F
:100A100000083BD5686810F00C0F07D06868C0F379
:100A20008100022809D16868C00306D428688007BD
:100A300014D5206901281FD110E02069B0B1C6F893
:100A40000090FFF7C3FD074605E000BFFFF7BEFDBE
:100A5000C01B0228C4D828688007F7D528686169B8
:100A600020F0F80040EAC10028600FE0C6F80080DE
:100A7000FFF7ACFD074606E0E9E000BFFFF7A6FD83
:100A8000C01B022823D828688007F7D420780007E5
:100A90002CD57248A169D9B1C0F80090FFF796FD36
:100AA000074604E0FFF792FDC01B02280FD8686AD2
:100AB0008007F7D56A484FF4FA510068B0FBF1F0AF
:100AC000009000BF0098411E0091FAD20EE080E035
:100AD000C0F80080FFF77AFD074604E0FFF776FDD7
:100AE000C01B022875D8686A8007F7D420784007B1
:100AF00060D5E8690027C00008D4E86940F080505C
:100B0000E861E869012700F08050009055480168CD
:100B1000C90513D40168834641F480710160FFF771
:100B200055FD824606E000BFFFF750FDA0EB0A002E
:100B300064284ED8DBF80000C005F5D5E068012830
:100B40000AD008B1052813D0286A20F001002862D5
:100B5000286A20F0040002E0286A40F001002862C0
:100B6000E06841F2883B98B1FFF730FD82460BE028
:100B7000286A40F004002862EEE700BFFFF726FD78
:100B8000A0EB0A0159455AD8286A8007F6D50CE02F
:100B9000FFF71CFD824605E0FFF718FDA0EB0A01F8
:100BA00059454CD8286A8007F6D41FB1E86920F06F
:100BB0008050E861E06988B36968C1F38101022966
:100BC00045D00228C6F8608004D0FFF7FFFC044639
:100BD00038E034E0FFF7FAFC074604E0FFF7F6FCE4
:100BE000C01B02282BD828688001F7D4206AB0F5F2
:100BF000803F05D16868A16820F400300843686030
:100C0000D4E908010843696821F474110843686055
:100C1000C6F86090FFF7DAFC044606E015E000BF76
:100C2000FFF7D4FC001B022809D828688001F7D5FB
:100C30000BE000BFFFF7CAFC001B022802D903200B
:100C4000BDE8F88F28688001F4D40020F8E701207F
:100C5000F6E70000001002400000424280044242D9
:100C60003C0000200070004070B5040005D0002555
:100C7000A56294F8510010B104E0012070BD204637
:100C800000F034F8022084F851002068016821F057
:100C900040010160D4E901010843D4E90312114382
:100CA000084361690843218B01F400710843E1693D
:100CB0000843216A0843A16A084321680860A069C3
:100CC000042101EA1040616A0843216848602168F4
:100CD000E06A08612068C16921F40061C16165654D
:100CE000012084F85100002070BD000010B500689C
:100CF000114986B088421CD11048816941F4805165
:100D0000816180690E4C00F480500490A020009016
:100D1000022001900320039069462046FFF772FBF2
:100D200000214020CDE90001029169462046FFF7ED
:100D300069FB06B010BD0000003001400010024009
:100D4000000801402DE9F84F044640680026984607
:100D500017460D464FF00409B0F5827F01D1A06817
:100D600090B194F85000012819D04FF0010B84F88D
:100D700050B0FFF72BFC009094F851004FF0000AA0
:100D800001280ED002267FE084F8519013460A46CF
:100D90002046CDF8008000F031F9BDE8F88F022040
:100DA000FBE7002D6FD0002F6DD084F85190C4F870
:100DB00054A0A563A787E787C4F830A0A4F834A09F
:100DC000A4F836A0C4F840A0C4F844A0A0684FF42A
:100DD0000047B84204D12068016821F480410160D5
:100DE00020680168490603D4016841F040010160B0
:100DF000E068B8B133E020688168C90706D0007B9D
:100E000005F8010BE08F401EE0870BE0B8F1000F02
:100E100023D0B8F1FF3F05D0FFF7D8FB0099411A66
:100E200041451AD2E08F0028E5D11BE02068816897
:100E3000C90706D0C06825F8020BE08F401EE08786
:100E40000DE0B8F1000F08D0B8F1FF3F07D0FFF771
:100E5000BDFB0099411A414501D3032614E0E08F00
:100E60000028E3D16068B0F5827F0AD1A068B8425B
:100E700002D0B0F5806F04D12068016821F04001F4
:100E80000160606D00B1012684F851B084F850A073
:100E9000304682E72DE9F84F044690F850000026CE
:100EA000994617460D4601280DD04FF0010B84F8E6
:100EB00050B0FFF78BFB804694F85100B2460128F2
:100EC00004D0022694E00220BDE8F88F002D7BD0EC
:100ED000002F79D0032084F85100C4F854A0256372
:100EE000A786E786C4F838A0A4F83CA0A4F83EA0E2
:100EF000C4F844A0C4F840A0A068B0F5004F04D1E5
:100F00002068016841F48041016020680168490659
:100F100003D4016841F040010160E068B0F5006F62
:100F2000606804D030B3E08E012823D03EE010B1D9
:100F3000E08E01281AD135F8021B206805E02068F0
:100F40008168890706D535F8021BC160E08E401E16
:100F5000E0860BE0B9F1000F34D0B9F1FF3F05D0C6
:100F6000FFF734FBA0EB080149452BD2E08E0028A7
:100F7000E5D11EE0216815F8010B087306E0206832
:100F80008168890706D515F8011B0173E08E401EA4
:100F9000E0860BE0B9F1000F14D0B9F1FF3F05D0A6
:100FA000FFF714FBA0EB080149450BD2E08E0028A7
:100FB000E5D14B46012202212046CDF8008000F009
:100FC000E5FD10B1032613E011E0424649462046F4
:100FD00000F0CCFD18B101262020606508E0A06873
:100FE00018B92068C16880680090606D00B1012662
:100FF00084F851B084F850A0304665E72DE9F84FE9
:10100000044690F8500000260A9F9A4693460D46E3
:101010004FF0010801280ED0012084F85000FFF79E
:10102000D5FA814694F85100616801280CD0B1F5D9
:10103000827F07D102E00220BDE8F88FA16809B9DC
:10104000042801D00226BDE055B1BBF1000F07D046
:10105000BAF1000F04D094F85100012802D004E046
:101060000126AFE0052084F8510000206065C4F837
:1010700038B0A4F83EA0A4F83CA02563A4F836A09C
:10108000A4F834A02064606420680168490603D491
:10109000016841F040010160E068B0F5006F6068F0
:1010A00004D0E8B3E08E01283BD06AE010B1E08EB6
:1010B00001282ED1216835F8020BC860E08E401E51
:1010C000E08626E0B8F1000F0DD0E08E58B1206820
:1010D0008168890707D535F8021BC160E08E401E84
:1010E000E0864FF00008E08F58B120688168C9079A
:1010F00007D0C0682BF8020BE08F401EE0874FF04E
:101100000108781C05D0FFF761FAA0EB0900B8428E
:1011100046D2E08E0028D5D1E08F0028D2D136E02B
:10112000FFE7216815F8010B0873E08E401EE0868A
:1011300027E000BFB8F1000F0DD0E08E58B1206855
:101140008168890707D515F8011B0173E08E401EE1
:10115000E0864FF00008E08F58B120688168C90729
:1011600007D0C0680BF8010BE08F401EE0874FF0FE
:101170000108781C05D0FFF729FAA0EB0900B84256
:101180000ED2E08E0028D5D1E08F0028D2D13B4688
:10119000012202212046CDF8009000F0F7FC08B1B2
:1011A00003260FE04A463946204600F0DFFC18B11E
:1011B00001262020606505E0A06818B92068C16894
:1011C00080680090012084F85100002084F85000CD
:1011D000304631E74FF0E0210428086903D020F0C1
:1011E00004000861704740F00400FAE7704710B54A
:1011F000401EB0F1807F01D3012010BD4FF0E024EC
:1012000060610F21601700F02BFC0020A061072017
:101210002061002010BD10B5FFF7E8FF10BD70473A
:10122000704730B590F83C20012A20D0012280F888
:101230003C20022380F83D3003685C6824F0700491
:101240005C6003685C680D682C435C6003689C68A4
:1012500024F080049C6003689C6849680C439C608F
:1012600080F83D20002180F83C10084630BD022067
:1012700030BD10B5040003D094F83D0010B107E074
:10128000012010BD002084F83C00204600F00CF83E
:10129000022084F83D00211D206800F037FD012068
:1012A00084F83D00002010BD08B500680B49884255
:1012B00012D10B48C16941F00201C161C06900222D
:1012C00000F00200009011461D20FFF713FABDE860
:1012D00008401D20FFF702BA08BD000000040040CE
:1012E000001002400168CA6842F00102CA6000684A
:1012F000016841F0010101600020704770B50446AB
:1013000090F83C00012817D0012584F83C500220B9
:1013100084F83D002068826822F0770222F47F4240
:1013200082600868502837D00DDC202859D005DCB1
:1013300088B3102841D151E0022070BD302853D02D
:1013400040283AD13FE060282ED070280BD0B0F56D
:10135000805F03D0B0F5005F2FD110E02068816876
:1013600021F0070115E0CB68D1E90121206800F0E8
:1013700003FD2168886840F0770088601DE0CB6835
:10138000D1E90121206800F0F7FC2068816841F470
:101390008041816011E01EE0CA684968206800F061
:1013A000FDFC5021206806E0CA684968206800F00A
:1013B00006FD6021206800F0E9FC84F83D50002023
:1013C00084F83C0070BDCA684968206800F0E6FCFB
:1013D00040212068EFE700212068ECE71021206819
:1013E000E9E720212068E6E730212068E3E770473D
:1013F00070B50446006801694FF00005C9438907CC
:1014000015D4C168C943890711D4E91E01610120BF
:101410002077206880698007204602D0FFF7E7FF29
:1014200004E000F098F8204600F096F82577206850
:101430000169C943490717D4C168C943490713D48F
:101440006FF004010161022020772068806910F4A8
:10145000407F204602D0FFF7CAFF04E000F07BF88F
:10146000204600F079F8257720680169C94309070B
:1014700016D4C168C943090712D46FF0080101618D
:10148000042020772068C0698007204602D0FFF73B
:10149000AEFF04E000F05FF8204600F05DF825772D
:1014A00020680169C943C90617D4C168C943C90680
:1014B00013D46FF010010161082020772068C06903
:1014C00010F4407F204602D0FFF791FF04E000F0C7
:1014D00042F8204600F040F8257720680169C943AA
:1014E000C90708D1C168C943C90704D1891E016170
:1014F000204600F033F820680169C943090609D481
:10150000C168C943090605D46FF080010161204616
:10151000FFF785FE20680169C943490609D4C168FF
:10152000C943490605D46FF040010161204600F02F
:101530001FF820680169C94389060BD4C168C943F3
:10154000890607D46FF0200101612046BDE8704094
:10155000FFF766BE70BD7047704700000349006822
:101560000968884201D100F02FBE7047E4030020D3
:101570007047704770B5026804461068D1685369B7
:1015800010F00F0F50D003F0010501F490763543B1
:101590005DD0C20705D0CA0503D5E26B42F0010257
:1015A000E263420705D5DA0703D0E26B42F002029C
:1015B000E263820705D5DA0703D0E26B42F004024A
:1015C000E263020705D5DA0703D0E26B42F00802B6
:1015D000E263E26B002A33D0800604D5880602D588
:1015E000204600F014FC20684069E16BC0F38010D5
:1015F000090700D428B3204600F0FBFB20684169AE
:1016000049061AD5416921F040014161606BA0B1E2
:101610001B494163606BFEF731FE002810D0606B00
:10162000416BBDE870400847830610D58B060ED588
:101630002046BDE8704000F0EABB2046FFF799FF66
:1016400070BD2046FFF795FF0020E06370BD0306E4
:1016500006D50B0604D52046BDE8704000F0DABC84
:101660004006F3D54806F1D5D168204621F0400167
:10167000D160202184F8391000F0FBF870BD000023
:10168000E31D000870B5040004D094F8390000256B
:1016900010B106E0012070BD84F83850204600F0FB
:1016A00023F8242084F839002068C16821F400510F
:1016B000C160204600F0F6FB2068016921F49041EA
:1016C00001612068416921F02A0141612068C168F7
:1016D00041F40051C160E563202084F8390084F8AA
:1016E0003A00002070BD000010B50068154986B0B2
:1016F000884225D11448816941F480418161806923
:10170000124C00F4804004904FF4007000900220CE
:1017100001900320039069462046FEF773FE0021E6
:101720002015CDE90001029169462046FEF76AFEC8
:10173000002211462520FEF7DDFF2520FEF7CEFF13
:1017400006B010BD00380140001002400008014002
:1017500090F83A30202B22D1F9B1F2B190F838301C
:10176000012B1CD081628285C2850021C1632222A7
:1017700080F83A2080F838100168CA6842F4807214
:10178000CA6001684A6942F001024A610068C168A2
:1017900041F02001C1600020704701207047022005
:1017A0007047000003480078012801D100F0C4BD53
:1017B00070470000040000202DE9F843044690F82B
:1017C00039001F4616460D46202850D1A5B19EB1BE
:1017D00094F8380001284AD0012084F838004FF0EE
:1017E0000008C4F83C80212084F83900FEF7EEFEA2
:1017F000A6848146E68426E00120BDE8F883E08CDB
:10180000401EE084A0684B46B0F5805F4FF00002B8
:101810004FF080012046009703D000F02CFCE8B97F
:101820000DE000F028FCC8B928882168C0F3080042
:101830004860206908B16D1C05E0AD1C03E021681B
:1018400015F8010B4860E08C0028D8D14B460022E7
:1018500040212046009700F00EFC08B10320CCE7A1
:10186000202084F8390084F838800020C5E7022061
:10187000C3E77047FEE70000F0B52C4885B08169EA
:1018800041F010018161816901F0100104918169C9
:1018900041F020018161816901F020010491816999
:1018A00041F004018161816901F0040104918169C1
:1018B00041F00801816180691D4E00F0080004902C
:1018C000002210213046FEF77BFE1A4F01221146FE
:1018D0003846FEF775FE002202213846FEF770FEFC
:1018E0000220009014480025CDE9010569463046E4
:1018F000FEF788FD102001248DE83100694630464E
:101900000394FEF77FFD03208DE8310069463846D9
:101910000394FEF777FD002211460720FEF7EAFE4A
:101920000720FEF7DBFE05B0F0BD0000001002400E
:1019300000080140000C014000002110114810B5C2
:101940000F4901604FF482714160002102228160E1
:10195000C0E9031201224261520282612822C0E9D9
:101960000721416281620A21C162FFF77DF90028E7
:1019700005D0BDE81040452103A000F0B7BB10BD65
:10198000003001408C0300202E2E2F5372632F73E2
:1019900070692E630000000010B5184886B0164923
:1019A00001604EF2FF010024C0E901144CF24F31F6
:1019B000C0E903148461FFF75CFC18B13F2110A05B
:1019C00000F094FB4FF48050009069460B48FFF7FD
:1019D00095FC18B145210AA000F088FB049404A9E5
:1019E00006480594FFF71DFC002803D04C2104A0F5
:1019F00000F07CFB06B010BD00040040E4030020B2
:101A00002E2E2F5372632F74696D2E630000000019
:101A10000D4810B50B4901604FF4E13141600021E0
:101A200081600C22C160C0E904128161C161FFF7CD
:101A300029FE002805D0BDE81040422103A000F097
:101A400055BB10BD00380140240400202E2E2F531A
:101A500072632F75736172742E630000FEE7704726
:101A60000907090E002806DA00F00F0000F1E02057
:101A700080F8141D704700F1E02080F800147047D2
:101A80007047000038B5020A8DF800208DF801007B
:101A900000208DF802000A4C8DF803100246102138
:101AA0002046FEF78DFD4FF47A73042269460548FF
:101AB000FFF7F0F9012210212046FEF781FD38BD25
:101AC000000801408C0300201CB5020A8DF800209C
:101AD0008DF8010000208DF80200080A0B4C8DF8EB
:101AE00003008DF80410002210212046FEF768FD47
:101AF0004FF47A73052269460548FFF7CBF90122B6
:101B000010212046FEF75CFD1CBD000000080140CE
:101B10008C0300201CB5020A8DF800208DF801000E
:101B200000208DF80200080E8DF80300080C8DF8D7
:101B30000400080A8DF805000A4C8DF806100022F2
:101B400010212046FEF73CFD4FF47A7307226946C8
:101B50000548FFF79FF9012210212046FEF730FDCE
:101B60001CBD0000000801408C03002038B50B4666
:101B7000009204460022802100F008F8002804D0DA
:101B8000606D40F020006065032038BD2DE9F04114
:101B90001D4617460E460446DDF8188035E0681CE1
:101BA00033D02DB1FEF712FDA0EB0800A8422CD3D4
:101BB0002068416821F0E00141606068B0F5827FF3
:101BC0000BD1A068B0F5004F02D0B0F5806F04D102
:101BD0002068016821F040010160A06AB0F5005F53
:101BE0000AD1206801684DF6FF721140016020683B
:101BF000016841F400510160012084F85100002087
:101C000084F850000320BDE8F0812068806836EA3F
:101C1000000004D00020B842C1D10020F3E7012029
:101C2000F9E7704710B5FEF7D7FCBDE81040FFF7A5
:101C3000F2BA000030B58FB001210804CDE90010E0
:101C40000024029402250491CDE907504FF4E010DE
:101C500009906846FEF786FE18B1B22112A000F086
:101C600045FA0F20CDE90A054FF48060CDE90C401C
:101C700002210AA80E94FEF76FFD18B1C0210AA038
:101C800000F034FAFEF712FE4FF47A71B0FBF1F077
:101C9000FFF7ADFA0420FFF79DFA00221146501E0F
:101CA000FEF728FD0FB030BD2E2E2F5372632F6D1F
:101CB00061696E2E630000000D48016841F001016A
:101CC000016041680B4A1140416001680A4A1140B5
:101CD0000160016821F480210160416821F4FE0166
:101CE00041604FF41F0181600449C00308607047E0
:101CF000001002400000FFF8FFFFF6FE08ED00E0D4
:101D00000148FFF775BB0000E4030020F0B502684E
:101D1000164B174C174D4FF08047984205D0B842EC
:101D200003D0A04201D0A84203D122F070064A6835
:101D30003243984205D0B84203D0A04201D0A84215
:101D400003D122F44074CA68224322F080044A6915
:101D5000224302608A68C2620A688262984201D1A4
:101D60000969016301214161F0BD0000002C0140BF
:101D7000000400400008004010B5846842EA0322D5
:101D800024F47F440A432243826010BD826822F01B
:101D900070020A4342F007018160704710B5036A80
:101DA000046A24F001040462846924F0F00444EA23
:101DB000021423F00A020A438461026210BD10B5C6
:101DC000036A23F0100303628369046A23F47043F7
:101DD00043EA023224F0A00343EA01118261016266
:101DE00010BD10B5406A0021C185C184FFF7C1FB59
:101DF00010BD0168CA6822F49072CA6001684A691D
:101E000022F001024A61202180F83A10704710B593
:101E100090F83A10222901D0022010BD8168B1F556
:101E2000805F11D00169002901681FD0496801F065
:101E30007F03816A4A1C82620B70C18D491E0904AE
:101E4000090CC18518D02BE00269816A002A02685A
:101E5000526805D0D2B20A80816A491C8162ECE7DF
:101E6000C2F308020A80816A891CF7E74A68816A1E
:101E70004B1C83620A70E0E70168CA6822F0200206
:101E8000CA600168CA6822F48072CA6001684A693F
:101E900022F001024A61202180F83A10FFF782FC0B
:101EA000002010BD2DE9F041044600680169E26898
:101EB00021F44051114301612169A068084361691F
:101EC00008432168CA6841F20C639A430243CA601E
:101ED00020684169A26921F44071114341614C4974
:101EE00020686425322688423CD1FEF7F5FC00EBE1
:101EF000C00101EB001061688900B0FBF1F7FEF74B
:101F0000EBFC00EBC00101EB00106168B0468900FA
:101F1000B0FBF1F0B0FBF5F06FF01801484307EBB0
:101F2000800106EB0110B0FBF5F000F0F006FEF7C3
:101F3000D3FC00EBC00101EB001061688900B0FB2D
:101F4000F1F0B0FBF5F006EB0016FEF7C5FC00EB78
:101F5000C00101EB001061688900B0FBF1F7FEF7EA
:101F6000BBFC3BE0FEF7A8FC00EBC00101EB00105E
:101F700061688900B0FBF1F7FEF79EFC00EBC00141
:101F800001EB00106168B0468900B0FBF1F0B0FBD6
:101F9000F5F06FF01801484307EB800106EB0110E4
:101FA000B0FBF5F000F0F006FEF786FC00EBC00198
:101FB00001EB001061688900B0FBF1F0B0FBF5F0B7
:101FC00006EB0016FEF778FC00EBC00101EB0010F9
:101FD00061688900B0FBF1F7FEF76EFC00EBC00111
:101FE00001EB001061688900B0FBF1F0B0FBF5F087
:101FF0006FF01801484307EB800108EB0110B0FBBC
:10200000F5F0216800F00F0030448860BDE8F081F1
:102010000038014090F83910212901D00220704782
:102020008168B1F5805F016A0BD04A1C02620268C8
:1020300009785160C18C491E0904090CC1840ED075
:1020400017E009880268C1F308015160016900299D
:10205000016A02D0491C0162ECE7891CFBE70168B8
:10206000CA6822F08002CA600068C16841F040017D
:10207000C160002070472DE9F041984617460E4692
:102080000446069D1DE0681C1BD02DB1FEF79EFA8C
:10209000A0EB0800A84214D92068C16821F4D071CF
:1020A000C1602068416921F001014161202084F86C
:1020B000390084F83A00002084F838000320BDE895
:1020C000F0812068006836EA000004D00020B842A1
:1020D000D9D00020F3E70120F9E700000148FFF71D
:1020E00049BA000024040020FEE7000001A000F02F
:1020F0000DB800000A0D20536F6D657468696E6736
:102100002057726F6E672121210A0D00014A024992
:1021100000F013B85D2100084000002002E008C86C
:10212000121F08C1002AFAD170477047002001E051
:1021300001C1121F002AFBD170472DE9F04116465C
:102140000F460446002503E03946B047641C6D1C69
:1021500020780028F8D12846BDE8F08113B54FF665
:10216000FF73012269460248FFF726FB00981CBD59
:1021700024040020FEF738FAFFF75CFDFFF77CFB34
:10218000FFF7DCFBFFF744FCFFF706FCFEF700F867
:102190000120FEF7BFF8FEF703F86420FEF7BAF857
:1021A000FEF714F8FDF7D0FF0448FFF79BF8012273
:1021B00003490448FFF7CCFAFEE70000E4030020DF
:1021C000040000202404002010B504224FF44671BE
:1021D0003748FEF71FF83648042240F21631001D3A
:1021E000FEF718F83248042240F212310830FEF7A8
:1021F00011F82F4804224FF445710C30FEF70AF80D
:102200002B4804224FF444711030FEF703F828489D
:1022100002224FF485710B38FDF7FCFF244802229F
:102220004FF487710938FDF7F5FF21494FF6FF7428
:102230002346012210391F48FFF7BEFA2346042225
:102240001B491C48FFF7B8FA194923460422091D07
:102250001848FFF7B1FA16492346042208311548F9
:10226000FFF7AAFA1249234604220C311148FFF75E
:10227000A3FA0F492346042210310E48FFF79CFAB7
:102280000B49234602220B390A48FFF795FA084901
:102290002346022209390748FFF78EFA23460449EC
:1022A0000122BDE810400D390248FFF785BA000051
:1022B000100000202404002010B5042240F21E313A
:1022C0001B48FDF7A7FF1A4804224FF44871001D70
:1022D000FDF7A0FF1648042240F222310830FDF736
:1022E00099FF13494FF6FF74234601222339114801
:1022F000FFF762FA234604220D490E48FFF75CFA05
:102300000B4923460422091D0A48FFF755FA0849DC
:102310002346042208310748FFF74EFA23460449B2
:102320000122BDE8104021390248FFF745BA0000FC
:1023300024000020240400202DE9F0414FF6FF7511
:102340002B4601220E490F48FFF736FA0E4E0024A5
:102350004FF48C7704EB440081192B460322094883
:10236000FFF72AFA641CA4B2BC42F3D32B46BDE8A3
:10237000F04103490122491C0248FFF71DBA000041
:10238000020000202404002044000020000000007F
:102390000000000001020304060708090000000015
:1023A00001020304C42300080000002044000000D0
:1023B0001C21000808240008440000202408000014
:1023C0002C210008010203FE0000000000000000B4
:1023D00000000000000000000000000000000000FD
:1023E00000000000000000000000000000000000ED
:1023F00000000000010000001000000000000000CC
:0824000000A24A0400000000E4
:04000005080000ED02
:00000001FF
