:020000040800F2
:10000000B005002001010008E70F00088B0E000872
:10001000E50F000815020008591400080000000050
:10002000000000000000000000000000AB1100080C
:10003000170200080000000009100008AD110008B8
:100040001B0100081B0100081B0100081B01000820
:100050001B0100081B0100081B0100081B01000810
:100060001B0100081B0100081B0100081B01000800
:100070001B0100081B0100081B0100081B010008F0
:100080001B0100081B0100081B0100081B010008E0
:100090001B0100081B0100081B0100081B010008D0
:1000A0001B0100081B0100081B0100081B010008C0
:1000B0001B0100081B0100081B0100081B010008B0
:1000C0001B0100081B0100081B0100081B010008A0
:1000D0001B0100081B0100081B0100081B01000890
:1000E0001B0100081B0100081B010008DFF80CD0F1
:1000F00000F018F800480047ED140008B005002093
:100100000648804706480047FEE7FEE7FEE7FEE7B1
:10011000FEE7FEE7FEE7FEE7FEE7FEE73D1200082A
:10012000ED000008064C074D06E0E06840F00103D2
:1001300094E8070098471034AC42F6D3FFF7DAFF93
:10014000781500089815000810B50C214FF481703F
:1001500000F07EFFFF21002000F058FF4FF4807177
:100160004FF4407000F09AFF5521042000F04EFF3C
:1001700047F2305140F2011000F06AFFBDE8104034
:1001800002494FF44B7000F089BF000038001400A2
:1001900000221021014800F02FB9000000080140A2
:1001A00010B5094C00220121204600F025F90A2053
:1001B00000F032F801221146204600F01DF9BDE89A
:1001C00010400A2000F028B8000C01401CB50120A6
:1001D0008DF8000002208DF8010000208DF802004B
:1001E00004200A4C8DF8030000221021204600F064
:1001F00003F94FF47A7305226946054800F0B2FC12
:1002000001221021204600F0F7F81CBD0008014033
:1002100014010020FEE7704770B5044600F0F2F8C4
:100220000546601C02D004480078044400F0EAF857
:10023000401BA042FAD370BD000000202DE9F84F0A
:10024000DFF890A100220AF1040B144601274FF0B9
:100250000F090BF1040E00BF0B6807FA04F52B40E1
:10026000AB4274D1DFF870C14E68A6EB0C0866454E
:100270002BD00DDC032E34D005DC36B3012E19D083
:10028000022E2FD11BE0112E16D0122E2AD119E0EA
:10029000B8F5881F19D006DCB8F5803F15D0B8F541
:1002A000801F1FD111E0B8F5001F0ED0B8F5041F54
:1002B00018D10AE0CA6815E0CA68121D12E0CA68BF
:1002C00008320FE0CA680C320CE08A682AB1012AB1
:1002D0004FF0080203D0456104E0042202E005610A
:1002E00000E00022FF2B01D8064601E000F10406E1
:1002F0004FEA840501D9A5F12005D6F800C009FA16
:1003000005F82CEA080C02FA05F54CEA050CC6F8CB
:1003100000C04D68ED0057D5304DAE6946F001067E
:10032000AE61AD6924F0030605F0010500952C4D82
:1003300006EB050CDCF80850A6074FEA167809FA18
:1003400008F6B543274EB04202D1002610E03BE04C
:10035000254EB04201D101260AE0244EB04201D11F
:10036000022605E0224EB04201D1032600E0042619
:1003700006FA08F62E43CCF808604D68DAF80060FB
:10038000ED03554601D51E4300E09E432E604D68A7
:10039000DBF80060AD035D4601D51E4300E09E43DF
:1003A0002E604D68DEF80060ED02754601D51E43F3
:1003B00000E09E432E604D68AD020E4D2E6801D5C3
:1003C0001E4300E09E432E60641C102CFFF444AFDB
:1003D000BDE8F88F00040140000011100010024039
:1003E0000000014000080140000C014000100140E5
:1003F000001401400C0401400AB101617047090476
:10040000FBE7000001488068704700000000002002
:100410000248816802781144816070470000002022
:10042000074810B5016841F010010160032000F099
:1004300091F8002000F006F800F024F8002010BD2C
:100440000020024070B50D4D04464FF47A712878B3
:10045000B1FBF0F00A490968B1FBF0F000F043FC91
:1004600048B9102C07D200222146501E00F052F845
:1004700000206C6070BD012070BD000000000020F5
:100480000C000020214808B5816941F0010181611B
:10049000816901F001010091C16941F08051C161A0
:1004A000C06900F080500090032000F053F8002253
:1004B00011466FF00B0000F02DF8002211466FF08E
:1004C0000A0000F027F8002211466FF0090000F042
:1004D00021F800221146501F00F01CF8002211469E
:1004E000101F00F017F800221146901E00F012F8BD
:1004F00000221146501E00F00DF80548416821F019
:10050000E06141F00071416008BD00000010024050
:1005100000000140F0B40E4B1B680C46C3F30223ED
:10052000C3F10705042D00D90425191D072901D29F
:10053000002300E0DB1E012606FA05F1491E2140DA
:1005400099409E40761E16403143F0BC00F04CBDF1
:100550000CED00E0064900F0070208684FF6FF03C3
:10056000184040EA0220034A104308607047000028
:100570000CED00E00000FA052DE9F047DFF83C81C2
:1005800005460E46D8F8000000F00700B0420CD235
:10059000D8F8001021F007013143C8F80010D8F84E
:1005A000000000F00700B04263D12878444C800777
:1005B00005D56068A96820F0F000084360602878DD
:1005C000C00745D06868012816D02168022816D0D7
:1005D000890700294DDA616821F003010143616058
:1005E000FFF710FF6968074641F2883001290FD0F4
:1005F0000229814619D027E021688903E9E78901AA
:10060000E7E700BFFFF7FEFEC11B494501D918E02F
:1006100081466068C0F381000128F3D118E000BF73
:10062000FFF7F0FEC11B49450BD86068C0F381009D
:100630000228F5D10CE000BFFFF7E4FEC11B4945DD
:1006400002D90320BDE8F087606810F00C0FF3D1E9
:10065000D8F80010404601F00701B1420BD90168FB
:1006600021F0070131430160006800F00700B0424B
:1006700001D00120E6E72878400705D56068E968E1
:1006800020F4E060084360602878000706D56068C1
:10069000296920F4605040EAC100606000F03CF835
:1006A0006168084AC1F30311515CC84006490860FB
:1006B0000020FFF7C7FE0020C4E700000020024032
:1006C00000100240601500080C000020014800687E
:1006D000704700000C000020044805490068496884
:1006E000044AC1F30221515CC84070470C0000204D
:1006F0000010024070150008044805490068496868
:10070000044AC1F3C221515CC84070470C0000206C
:10071000001002407015000812A185B00FC98DE8C5
:100720000F0014A0144A006804905168134801F0A7
:100730000C03042B10D0082B0ED1C1F38343C90343
:100740001DF803000AD5516804AAC1F34041515C69
:100750000A4A5043B0FBF1F005B0704708494843DE
:10076000FAE7000002030405060708090A0B0C0D4E
:100770000E0F1010010200000010024000127A005B
:1007800000093D002DE9F84F04460078B94DC00737
:1007900048D06868C0F38100012807D06868C0F3BA
:1007A0008100022809D16868C00306D52868800343
:1007B00038D5606800286FD034E06068B0F5803FBD
:1007C0000BD010B1B0F5A02F11D0286820F48030E4
:1007D0002860286820F4802002E0286840F48030F7
:1007E0002860606888B1FFF70DFE064609E02868BA
:1007F00040F480202860F0E7FFF704FE801B6428A7
:1008000075D828688003F7D50CE0FFF7FBFD064696
:1008100005E000BFFFF7F6FD801B6428F0D82868CC
:100820008003F7D42078944E80074FF001094FF0F1
:1008300000083BD5686810F00C0F07D06868C0F35B
:100840008100022809D16868C00306D4286880079F
:1008500014D5206901281FD110E02069B0B1C6F875
:100860000090FFF7CFFD074605E000BFFFF7CAFD88
:10087000C01B0228C4D828688007F7D5286861699A
:1008800020F0F80040EAC10028600FE0C6F80080C0
:10089000FFF7B8FD074606E0E9E000BFFFF7B2FD4D
:1008A000C01B022823D828688007F7D420780007C7
:1008B0002CD57248A169D9B1C0F80090FFF7A2FD0C
:1008C000074604E0FFF79EFDC01B02280FD8686AA8
:1008D0008007F7D56A484FF4FA510068B0FBF1F091
:1008E000009000BF0098411E0091FAD20EE080E017
:1008F000C0F80080FFF786FD074604E0FFF782FDA1
:10090000C01B022875D8686A8007F7D42078400792
:1009100060D5E8690027C00008D4E86940F080503D
:10092000E861E869012700F08050009055480168AF
:10093000C90513D40168834641F480710160FFF753
:1009400061FD824606E000BFFFF75CFDA0EB0A00F8
:1009500064284ED8DBF80000C005F5D5E068012812
:100960000AD008B1052813D0286A20F001002862B7
:10097000286A20F0040002E0286A40F001002862A2
:10098000E06841F2883B98B1FFF73CFD82460BE0FE
:10099000286A40F004002862EEE700BFFFF732FD4E
:1009A000A0EB0A0159455AD8286A8007F6D50CE011
:1009B000FFF728FD824605E0FFF724FDA0EB0A01C2
:1009C00059454CD8286A8007F6D41FB1E86920F051
:1009D0008050E861E06988B36968C1F38101022948
:1009E00045D00228C6F8608004D0FFF70BFD04460E
:1009F00038E034E0FFF706FD074604E0FFF702FDAC
:100A0000C01B02282BD828688001F7D4206AB0F5D3
:100A1000803F05D16868A16820F400300843686011
:100A2000D4E908010843696821F474110843686037
:100A3000C6F86090FFF7E6FC044606E015E000BF4C
:100A4000FFF7E0FC001B022809D828688001F7D5D1
:100A50000BE000BFFFF7D6FC001B022802D90320E1
:100A6000BDE8F88F28688001F4D40020F8E7012061
:100A7000F6E70000001002400000424280044242BB
:100A80000C0000200070004070B5040005D0002567
:100A9000A56294F8510010B104E0012070BD204619
:100AA00000F034F8022084F851002068016821F039
:100AB00040010160D4E901010843D4E90312114364
:100AC000084361690843218B01F400710843E1691F
:100AD0000843216A0843A16A084321680860A069A5
:100AE000042101EA1040616A0843216848602168D6
:100AF000E06A08612068C16921F40061C16165652F
:100B0000012084F85100002070BD000010B500687D
:100B1000114986B088421CD11048816941F4805146
:100B2000816180690E4C00F480500490A0200090F8
:100B3000022001900320039069462046FFF77EFBC8
:100B400000214020CDE90001029169462046FFF7CF
:100B500075FB06B010BD00000030014000100240DF
:100B6000000801402DE9F84F044690F85000002697
:100B7000994617460D4601280DD04FF0010B84F819
:100B800050B0FFF73FFC804694F85100B246012870
:100B900004D0022694E00220BDE8F88F002D7BD01F
:100BA000002F79D0032084F85100C4F854A02563A5
:100BB000A786E786C4F838A0A4F83CA0A4F83EA015
:100BC000C4F844A0C4F840A0A068B0F5004F04D118
:100BD0002068016841F4804101602068016849068D
:100BE00003D4016841F040010160E068B0F5006F96
:100BF000606804D030B3E08E012823D03EE010B10D
:100C0000E08E01281AD135F8021B206805E0206823
:100C10008168890706D535F8021BC160E08E401E49
:100C2000E0860BE0B9F1000F34D0B9F1FF3F05D0F9
:100C3000FFF7E8FBA0EB080149452BD2E08E002826
:100C4000E5D11EE0216815F8010B087306E0206865
:100C50008168890706D515F8011B0173E08E401ED7
:100C6000E0860BE0B9F1000F14D0B9F1FF3F05D0D9
:100C7000FFF7C8FBA0EB080149450BD2E08E002826
:100C8000E5D14B46012202212046CDF8008000F03C
:100C900041FA10B1032613E011E0424649462046CE
:100CA00000F028FA18B101262020606508E0A0684D
:100CB00018B92068C16880680090606D00B1012695
:100CC00084F851B084F850A0304665E74FF0E02139
:100CD0000428086903D020F004000861704740F040
:100CE0000400FAE7704710B5401EB0F1807F01D3D1
:100CF000012010BD4FF0E02460610F21601700F06B
:100D000073F90020A06107202061002010BD10B5FC
:100D1000FFF7E8FF10BD70B5040004D094F8390067
:100D2000002510B106E0012070BD84F8385020463F
:100D300000F022F8242084F839002068C16821F4EA
:100D40000051C160204600F09DFA2068016921F43D
:100D5000904101612068416921F02A0141612068C8
:100D6000C16841F40051C160E563202084F8390076
:100D700084F83A00002070BD10B50068114986B0B3
:100D800088421DD11048816941F4804181618069A8
:100D90000E4C00F4804004904FF40070009002204C
:100DA00001900320039069462046FFF747FA00218F
:100DB0002015CDE90001029169462046FFF73EFA71
:100DC00006B010BD0038014000100240000801408C
:100DD0002DE9F843044690F839001F4616460D46A3
:100DE000202850D1A5B19EB194F8380001284AD0EE
:100DF000012084F838004FF00008C4F83C8021201E
:100E000084F83900FFF7FEFAA6848146E68426E0DE
:100E10000120BDE8F883E08C401EE084A0684B46CA
:100E2000B0F5805F4FF000024FF080012046009740
:100E300003D000F0DFFAE8B90DE000F0DBFAC8B942
:100E400028882168C0F308004860206908B16D1C3B
:100E500005E0AD1C03E0216815F8010B4860E08C4B
:100E60000028D8D14B46002240212046009700F0B0
:100E7000C1FA08B10320CCE7202084F8390084F8B7
:100E800038800020C5E70220C3E7FEE7F0B5284818
:100E900085B0816941F010018161816901F0100123
:100EA0000491816941F020018161816901F0200193
:100EB0000491816941F004018161816901F00401BB
:100EC0000491816941F0080181618069194E00F047
:100ED00008000490002210213046FFF78DFA164FCB
:100EE000012211463846FFF787FA002202213846D0
:100EF000FFF782FA00240220CDE90004694630465B
:100F00000294FFF79BF901251020CDE90005694601
:100F10003046CDE90245FFF791F90320CDE9000500
:100F200069463846CDE90245FFF788F905B0F0BDBE
:100F30000010024000080140000C0140114810B5AB
:100F40000F4901604FF482714160002102228160EB
:100F5000C0E9031201224261520282612822C0E9E3
:100F60000721416281620A21C162FFF78DFD0028DD
:100F700005D0BDE81040452103A000F06FBA10BDB8
:100F800000300140140100202E2E2F5372632F7366
:100F900070692E63000000000D4810B50B49016018
:100FA0004FF4E1314160002181600C22C160C0E951
:100FB00004128161C161FFF7AEFE002805D0BDE8D3
:100FC0001040422103A000F049BA10BD0038014092
:100FD0006C0100202E2E2F5372632F757361727473
:100FE0002E630000FEE770470907090E002806DAA5
:100FF00000F00F0000F1E02080F8141D704700F1B0
:10100000E02080F8001470477047000038B5020AED
:101010008DF800208DF8010000208DF802000A4CA8
:101020008DF80310024610212046FFF7E5F94FF432
:101030007A73042269460548FFF794FD01221021C6
:101040002046FFF7D9F938BD0008014014010020FF
:101050001CB5020A8DF800208DF8010000208DF8E3
:101060000200080A0B4C8DF803008DF804100022D2
:1010700010212046FFF7C0F94FF47A730522694624
:101080000548FFF76FFD012210212046FFF7B4F954
:101090001CBD000000080140140100201CB5020A1C
:1010A0008DF800208DF8010000208DF80200080E58
:1010B0008DF80300080C8DF80400080A8DF805006F
:1010C0000A4C8DF80610002210212046FFF794F9F3
:1010D0004FF47A73072269460548FFF743FD012262
:1010E00010212046FFF788F91CBD000000080140D0
:1010F0001401002038B50B460092044600228021DE
:1011000000F008F8002804D0606D40F02000606511
:10111000032038BD2DE9F0411D4617460E46044612
:10112000DDF8188035E0681C33D02DB1FFF76AF97F
:10113000A0EB0800A8422CD32068416821F0E00110
:1011400041606068B0F5827F0BD1A068B0F5004FB8
:1011500002D0B0F5806F04D12068016821F0400111
:101160000160A06AB0F5005F0AD1206801684DF601
:10117000FF72114001602068016841F40051016074
:10118000012084F85100002084F850000320BDE8BD
:10119000F0812068806836EA000004D00020B84260
:1011A000C1D10020F3E70120F9E7704710B5FFF740
:1011B0002FF9BDE81040FFF7AABD000030B58FB091
:1011C00001210804CDE900100024029402250491B5
:1011D000CDE907504FF4E01009906846FFF7D2FAC6
:1011E00008B1A0210DE00F20CDE90A054FF4806081
:1011F000CDE90C4002210AA80E94FFF7BDF918B101
:10120000AE210AA000F02AF9FFF760FA4FF47A71D4
:10121000B0FBF1F0FFF767FD0420FFF757FD002258
:101220001146501EFFF776F90FB030BD2E2E2F530A
:1012300072632F6D61696E2E630000000D480168B6
:1012400041F00101016041680B4A114041600168B1
:101250000A4A11400160016821F48021016041685F
:1012600021F4FE0141604FF41F0181600449C00375
:1012700008607047001002400000FFF8FFFFF6FE14
:1012800008ED00E02DE9F041044600680169E268DC
:1012900021F44051114301612169A068084361694B
:1012A00008432168CA6841F20C639A430243CA604A
:1012B00020684169A26921F44071114341614C49A0
:1012C00020686425322688423CD1FFF715FA00EBEE
:1012D000C00101EB001061688900B0FBF1F7FFF776
:1012E0000BFA00EBC00101EB00106168B046890009
:1012F000B0FBF1F0B0FBF5F06FF01801484307EBDD
:10130000800106EB0110B0FBF5F000F0F006FFF7EE
:10131000F3F900EBC00101EB001061688900B0FB3C
:10132000F1F0B0FBF5F006EB0016FFF7E5F900EB86
:10133000C00101EB001061688900B0FBF1F7FFF715
:10134000DBF93BE0FFF7C8F900EBC00101EB00104F
:1013500061688900B0FBF1F7FFF7BEF900EBC0014F
:1013600001EB00106168B0468900B0FBF1F0B0FB02
:10137000F5F06FF01801484307EB800106EB011010
:10138000B0FBF5F000F0F006FFF7A6F900EBC001A6
:1013900001EB001061688900B0FBF1F0B0FBF5F0E3
:1013A00006EB0016FFF798F900EBC00101EB001007
:1013B00061688900B0FBF1F7FFF78EF900EBC0011F
:1013C00001EB001061688900B0FBF1F0B0FBF5F0B3
:1013D0006FF01801484307EB800108EB0110B0FBE8
:1013E000F5F0216800F00F0030448860BDE8F0811E
:1013F000003801402DE9F041984617460E46044654
:10140000069D1DE0681C1BD02DB1FEF7FBFFA0EB75
:101410000800A84214D92068C16821F4D071C160C5
:101420002068416921F001014161202084F83900E0
:1014300084F83A00002084F838000320BDE8F081E9
:101440002068006836EA000004D00020B842D9D0F5
:101450000020F3E70120F9E7FEE700004FF47A747B
:1014600003A000F00FF82046FEF7D6FEF8E70000D4
:101470000A0D207072696E74662074657374212180
:10148000210A0D00014A024900F013B8D5140008E2
:101490001000002002E008C8121F08C1002AFAD17B
:1014A00070477047002001E001C1121F002AFBD1E4
:1014B00070472DE9F04116460F460446002503E02B
:1014C0003946B047641C6D1C20780028F8D12846A6
:1014D000BDE8F08113B54FF6FF730122694602485B
:1014E000FFF776FC00981CBD6C010020FEF798FF0A
:1014F000FFF764FEFFF7CAFCFFF720FDFFF74CFD86
:10150000FEF746FEFEF74CFE6420FEF785FEFEF772
:101510005DFE0120FEF780FE08488078C00602D5F7
:1015200007A0FFF7AFFFFEF70FFE4FF47A7407A096
:10153000FFF7A8FF2046FEF76FFEF8E71400002033
:1015400041444537393533204F4B0A000A0D20708E
:1015500072696E746620746573742121210A0D000E
:101560000000000000000000010203040607080953
:10157000000000000102030498150008000000208C
:101580001400000094140008AC150008140000209A
:101590009C050000A41400080100000010000000D9
:0C15A0000000000000A24A04000000004F
:04000005080000ED02
:00000001FF
